S014000072656C61795F48616E646C652E7372656348
S11300000C942A000C9447000C9447000C9447006D
S11300100C9447000C9447000C9447000C94470040
S11300200C9447000C9447000C9447000C94470030
S11300300C9447000C9447000C9447000C94470020
S11300400C9447000C9447000C9447000C94470010
S11300500C94470011241FBECFE5D4E0DEBFCDBF12
S113006010E0A0E6B0E0E0E4F4E002C005900D92F8
S1130070A838B107D9F720E0A8E8B0E001C01D9284
S1130080AE38B207E1F70E941E010C941E020C94D4
S11300900000D39ADB988FE39CE90197F1F700C045
S11300A00000DB9A0895D398CB99FECFCB9BFECF6B
S11300B0CB99FECF089588E090E0CB9BFECF20E55E
S11300C02A95F1F7CB9B07C020918800220F21606D
S11300D02093880005C020918800220F2093880077
S11300E0CB99FECF0197009741F78091880008953E
S11300F0939A95E89A95F1F7000092B39F7092BB9A
S113010092B38295807F892B82BB939885E88A95E8
S1130110F1F700000895CF93C82F611102C092989F
S113012001C0929A8C2F82958F700E9478008C2F38
S11301300E947800CF91089561E00E948B00089599
S113014090E4699F800D112460E080680E948B0018
S113015008958FE295E70197F1F700C0000083E06E
S11301600E9478008FE39FE10197F1F700C000003F
S113017083E00E94780087EC90E00197F1F700C0DB
S1130180000083E00E9478008FEC97E00197F1F77C
S113019000C0000082E00E9478008FEC97E0019795
S11301A0F1F700C0000060E088E20E948B008FEC51
S11301B097E00197F1F700C0000060E08CE00E9436
S11301C08B008FEC97E00197F1F700C0000060E02E
S11301D086E00E948B008FEC97E00197F1F700C056
S11301E00000089560E081E00E948B0087EB9BE0B3
S11301F00197F1F700C000000895CF93DF93EC015D
S11302008881882331F021960E949C008991811174
S1130210FBCFDF91CF9108958AB387608ABB8AB3FD
S11302208F708ABB81B38FEF81BB8BB3806F8BBB25
S11302308BB3887F8BBB82B312BA0895CF93DF93BD
S1130240CDB7DEB764970FB6F894DEBF0FBECDBF4F
S11302500E940C010E94A9000F2EFBE1FF2EF02D3D
S11302600EE111E20E9449000E9453000E945B00CB
S113027080938B000E945B00809389000E945B0046
S113028080938A000E945B0080938C000E945B0034
S113029080938D0020918B0030E090918900A9011A
S11302A0490F511D90918A00490F511D90918C0066
S11302B0490F511D90E04817590739F00E94F20088
S11302C083E690E00E94FD003CC04AE0BE016F5FFF
S11302D07F4FC9010E94E90180918A004AE0BE0172
S11302E0655F7F4F90E00E94E90160E070E080E08C
S11302F00E94A0008CE690E00E94FD0060E070E0A7
S11303008CE00E94A000CE010B960E94FD0089E7BC
S113031090E00E94FD0061E070E081E00E94A00096
S11303208CE790E00E94FD0061E070E08BE00E94A9
S1130330A000CE0101960E94FD0086E890E00E9494
S1130340FD0090918A00809162008917A0F4D89AE8
S11303502FEF82E597E0215080409040E1F700C004
S11303600000D8982FEF82E597E02150804090401C
S1130370E1F700C0000090918A0080916100891724
S113038058F4DA9A2FEF80E792E0215080409040B1
S1130390E1F700C0000001C0DA9890918A008091D2
S11303A06000891758F4D99A2FEF80E792E0215022
S11303B080409040E1F700C0000001C0D998CC997A
S11303C051CFF09262000093610010936000909A04
S11303D049CFBB274A3031F4992322F4BDE29095EA
S11303E081959F4F0C94F501BB27FB015527AA2744
S11303F0880F991FAA1FA41710F0A41B83955051AE
S1130400B9F7A05DAA3308F0A95DA193009779F725
S1130410B111B1931192CB010C940E02DC01FC01D9
S1130420672F71917723E1F7329704C07C916D9324
S113043070836291AE17BF07C8F30895F894FFCF95
S1130440211E1B4572726F722121210054656D704B
S1130450657261747572653A0027430048756D6969
S10B0460646974793A00250077
S9030000FC
